:020000040800F2
:100000009804002001010008830D0008E90C000895
:10001000810D00086D0100082D110008000000008E
:10002000000000000000000000000000A70D000814
:100030006F01000800000000A50D0008A90D0008D0
:100040001B0100081B0100081B0100081B01000820
:100050001B0100081B0100081B0100081B01000810
:100060001B0100081B0100081B0100081B01000800
:100070001B0100081B0100081B0100081B010008F0
:100080001B0100081B0100081B0100081B010008E0
:100090001B0100081B0100081B0100081B010008D0
:1000A0001B0100081B0100081B0100081B010008C0
:1000B0001B0100081B0100081B0100081B010008B0
:1000C0001B0100081B0100081B0100081B010008A0
:1000D0001B010008211100081B0100081B0100087A
:1000E0001B0100081B0100081B010008DFF80CD0F1
:1000F00000F02AF800480047A511000898040020E5
:100100000648804706480047FEE7FEE7FEE7FEE7B1
:10011000FEE7FEE7FEE7FEE7FEE7FEE7410E00082A
:10012000ED000008D2B201E000F8012B491EFBD21D
:1001300070470022F6E710B513460A4604461946F2
:10014000FFF7F0FF204610BD064C074D06E0E068C3
:1001500040F0010394E8070098471034AC42F6D30E
:10016000FFF7C8FFF412000814130008FEE77047F9
:100170007047000010B590F821100024022903D028
:100180000421816301243DE001680A6822F00E0227
:100190000A6001680A6822F001020A601A4A0168CE
:1001A000914201D1012121E0174A1432914201D13B
:1001B00010211BE0144A2832914201D1891515E023
:1001C000114A3C32914201D189140FE00E4A50325B
:1001D000914202D14FF4803108E00B4A64329142DF
:1001E00002D14FF4801101E04FF08071064A083AC5
:1001F0005160012180F82110002180F82010416B0E
:1002000001B18847204610BD080002402DE9F84F93
:10021000DFF890A100220AF1040B144601274FF0E9
:100220000F090BF1040E00BF0B6807FA04F52B4011
:10023000AB4274D1DFF870C14E68A6EB0C0866457E
:100240002BD00DDC032E34D005DC36B3012E19D0B3
:10025000022E2FD11BE0112E16D0122E2AD119E01A
:10026000B8F5881F19D006DCB8F5803F15D0B8F571
:10027000801F1FD111E0B8F5001F0ED0B8F5041F84
:1002800018D10AE0CA6815E0CA68121D12E0CA68EF
:1002900008320FE0CA680C320CE08A682AB1012AE1
:1002A0004FF0080203D0456104E0042202E005613A
:1002B00000E00022FF2B01D8064601E000F1040611
:1002C0004FEA840501D9A5F12005D6F800C009FA46
:1002D00005F82CEA080C02FA05F54CEA050CC6F8FC
:1002E00000C04D68ED0057D5304DAE6946F00106AF
:1002F000AE61AD6924F0030605F0010500952C4DB3
:1003000006EB050CDCF80850A6074FEA167809FA48
:1003100008F6B543274EB04202D1002610E03BE07C
:10032000254EB04201D101260AE0244EB04201D14F
:10033000022605E0224EB04201D1032600E0042649
:1003400006FA08F62E43CCF808604D68DAF800602B
:10035000ED03554601D51E4300E09E432E604D68D7
:10036000DBF80060AD035D4601D51E4300E09E430F
:100370002E604D68DEF80060ED02754601D51E4323
:1003800000E09E432E604D68AD020E4D2E6801D5F3
:100390001E4300E09E432E60641C102CFFF444AF0B
:1003A000BDE8F88F00040140000011100010024069
:1003B0000000014000080140000C01400010014015
:1003C000001401400C04014001488068704700009F
:1003D000040000200248816802781144816070475F
:1003E00004000020074810B5016841F010010160C9
:1003F000032000F091F8002000F006F800F024F847
:10040000002010BD0020024070B50D4D04464FF491
:100410007A712878B1FBF0F00A490968B1FBF0F075
:1004200000F02CFB48B9102C07D200222146501EA8
:1004300000F052F800206C6070BD012070BD00001B
:1004400004000020100000201C4808B5816941F01C
:1004500001018161816901F001010091C16941F0EF
:100460008051C161C069002200F0805000901146A7
:100470006FF00B0000F030F8002211466FF00A0018
:1004800000F02AF8002211466FF0090000F024F86D
:1004900000221146501F00F01FF800221146101FC5
:1004A00000F01AF800221146901E00F015F8002204
:1004B000BDE808401146501E00F00EB80010024082
:1004C00000F01F02012191404009800000F1E0206E
:1004D000C0F8001170470000F0B40E4B1B680C46CA
:1004E000C3F30223C3F10705042D00D90425191D08
:1004F000072901D2002300E0DB1E012606FA05F1E0
:10050000491E214099409E40761E16403143F0BC62
:1005100000F038BC0CED00E0064900F00702086866
:100520004FF6FF03184040EA0220034A10430860D8
:10053000704700000CED00E00000FA052DE9F047DF
:10054000DFF8548105460E46D8F8000000F0070099
:10055000B0420CD2D8F8001021F007013143C8F89E
:100560000010D8F8000000F00700B0426FD12868F2
:100570004A4C810712D5400703D5606840F4E0601B
:1005800060602878000703D5606840F460506060C0
:100590006068A96820F0F000084360602878C00710
:1005A00044D06868012816D02168022816D089072F
:1005B00000294CDA616821F0030101436160FFF713
:1005C00003FF6968074641F2883001290ED00229ED
:1005D000814618D026E021688903E9E78901E7E729
:1005E000FFF7F2FEC11B494501D918E0814660685A
:1005F000C0F381000128F3D118E000BFFFF7E4FE4B
:10060000C11B49450BD86068C0F381000228F5D1B1
:100610000CE000BFFFF7D8FEC11B494502D90320FB
:10062000BDE8F087606810F00C0FF3D1D8F8001027
:10063000404601F00701B1420BD9016821F00701E2
:1006400031430160006800F00700B04201D0012092
:10065000E6E72878400705D56068E96820F4E0609F
:10066000084360602878000706D56068296920F48F
:10067000605040EAC100606000F03CF86168084AE0
:10068000C1F30311515CC840064908600020FFF720
:10069000BBFE0020C4E70000002002400010024022
:1006A000DC120008100000200148006870470000BC
:1006B000100000200448054900684968044AC1F355
:1006C0000221515CC8407047100000200010024019
:1006D000EC1200080448054900684968044AC1F35F
:1006E000C221515CC8407047100000200010024039
:1006F000EC12000812A185B00FC98DE80F0014A0FC
:10070000144A006804905168134801F00C03042B4C
:1007100010D0082B0ED1C1F38343C9031DF8030089
:100720000AD5516804AAC1F34041515C0A4A5043BA
:10073000B0FBF1F005B0704708494843FAE7000004
:1007400002030405060708090A0B0C0D0E0F101012
:10075000010200000010024000127A0000093D0072
:100760002DE9F84F04460078B94DC00748D06868B5
:10077000C0F38100012807D06868C0F38100022817
:1007800009D16868C00306D52868800338D5606839
:1007900000286FD034E06068B0F5803F0BD010B116
:1007A000B0F5A02F11D0286820F480302860286888
:1007B00020F4802002E0286840F4803028606068DF
:1007C00088B1FFF701FE064609E0286840F4802062
:1007D0002860F0E7FFF7F8FD801B642875D82868CB
:1007E0008003F7D50CE0FFF7EFFD064605E000BFFC
:1007F000FFF7EAFD801B6428F0D828688003F7D44F
:100800002078944E80074FF001094FF000083BD547
:10081000686810F00C0F07D06868C0F381000228E8
:1008200009D16868C00306D42868800714D52069F8
:1008300001281FD110E02069B0B1C6F80090FFF781
:10084000C3FD074605E000BFFFF7BEFDC01B022841
:10085000C4D828688007F7D52868616920F0F800B7
:1008600040EAC10028600FE0C6F80080FFF7ACFD49
:10087000074606E0E9E000BFFFF7A6FDC01B02281F
:1008800023D828688007F7D4207800072CD5724831
:10089000A169D9B1C0F80090FFF796FD074604E0C2
:1008A000FFF792FDC01B02280FD8686A8007F7D5B2
:1008B0006A484FF4FA510068B0FBF1F0009000BFB5
:1008C0000098411E0091FAD20EE080E0C0F800804E
:1008D000FFF77AFD074604E0FFF776FDC01B02280C
:1008E00075D8686A8007F7D42078400760D5E86932
:1008F0000027C00008D4E86940F08050E861E8694A
:10090000012700F08050009055480168C90513D4B4
:100910000168834641F480710160FFF755FD82460E
:1009200006E000BFFFF750FDA0EB0A0064284ED898
:10093000DBF80000C005F5D5E06801280AD008B151
:10094000052813D0286A20F001002862286A20F0C8
:10095000040002E0286A40F001002862E06841F2E9
:10096000883B98B1FFF730FD82460BE0286A40F0E3
:1009700004002862EEE700BFFFF726FDA0EB0A01A6
:1009800059455AD8286A8007F6D50CE0FFF71CFDB8
:10099000824605E0FFF718FDA0EB0A0159454CD847
:1009A000286A8007F6D41FB1E86920F08050E8611A
:1009B000E06988B36968C1F38101022945D0022842
:1009C000C6F8608004D0FFF7FFFC044638E034E04E
:1009D000FFF7FAFC074604E0FFF7F6FCC01B02280D
:1009E0002BD828688001F7D4206AB0F5803F05D164
:1009F0006868A16820F4003008436860D4E9080101
:100A00000843696821F4741108436860C6F860906F
:100A1000FFF7DAFC044606E015E000BFFFF7D4FC60
:100A2000001B022809D828688001F7D50BE000BF19
:100A3000FFF7CAFC001B022802D90320BDE8F88F8B
:100A400028688001F4D40020F8E70120F6E70000D0
:100A50000010024000004242800442421000002088
:100A6000007000404FF0E0210428086903D020F016
:100A700004000861704740F00400FAE710B5401E1A
:100A8000B0F1807F01D3012010BD4FF0E024606100
:100A90000F21601700F076F90020A0610720206187
:100AA000002010BD7047000070B502680446106851
:100AB000D168536910F00F0F51D003F0010501F414
:100AC000907635435DD0C20705D0CA0503D5E26BE9
:100AD00042F00102E263420705D5DA0703D0E26B78
:100AE00042F00202E263820705D5DA0703D0E26B27
:100AF00042F00402E263020705D5DA0703D0E26B95
:100B000042F00802E263E26B002A34D0800604D58A
:100B1000880602D5204600F0CDF920684069E16BD7
:100B2000C0F3801001F008010143204624D000F0FA
:100B3000B3F92068416949061AD5416921F040019D
:100B40004161606BA0B11B494163606BFFF712FB11
:100B5000002810D0606B416BBDE8704008478306E9
:100B60000FD58B060DD52046BDE8704000F0A2B928
:100B70002046FFF797FF70BDFFF794FF0020E0636A
:100B800070BD030606D50B0604D52046BDE87040AF
:100B900000F094BA4006F3D54806F1D5D168204656
:100BA00021F04001D160202184F8391000F096F83E
:100BB00070BD0000890E000870B5040004D094F8E0
:100BC0003900002510B106E0012070BD84F83850CE
:100BD000204600F023F8242084F839002068C168FA
:100BE00021F40051C160204600F0B0F9206801698D
:100BF00021F4904101612068416921F02A0141619D
:100C00002068C16841F40051C160E563202084F888
:100C1000390084F83A00002070BD000030B585B07E
:100C200000240094019402940394006818498842B7
:100C30002CD11848816941F480418161816901F4B6
:100C400080410491816941F0040181618069124D04
:100C500000F0040004904FF4007000900220019016
:100C60000320039069462846FFF7D0FA2815CDE9FE
:100C70000004694628460294FFF7C8FA002211468C
:100C80002520FFF729FC2520FFF71AFC05B030BD11
:100C9000003801400010024000080140704790F801
:100CA0003930202B18D1A9B1A2B190F83830012BDE
:100CB00012D001628284C2840021C163212280F8A3
:100CC000392080F838100068C16841F08001C160A7
:100CD0000020704701207047022070470149012021
:100CE0000870704700000020FEE7000030B585B0B6
:100CF0000024124801940394816941F00401816148
:100D0000816901F004010491816941F00801816168
:100D10008069012500F0080004904FF40040009025
:100D2000694602950648FFF771FA08208DE8310000
:100D300069460448FFF76AFA05B030BD001002406A
:100D400000080140000C01400C4810B50A49016040
:100D50004FF4E1314160002181600C22C160C0E9A3
:100D600004128161C161FFF727FF002803D0BDE8AD
:100D70001040FFF7FDB910BD0038014054000020BD
:100D8000FEE770470907090E002806DA00F00F0099
:100D900000F1E02080F8141D704700F1E02080F899
:100DA000001470477047704710B5FFF713FB0748F2
:100DB0000168491C0160EFF3108072B604490A68AB
:100DC00042F008020A6080F3108810BD180000206D
:100DD0001C00002030B58FB028216846FFF7A9F924
:100DE00014210AA8FFF7A5F9022501200490009517
:100DF0001020059000244FF4C010CDE9084007955D
:100E00006846FFF7ADFC0F200A90CDE90B540D9416
:100E100001210AA80E94FFF791FBFFF745FC4FF460
:100E2000FA51B0FBF1F0FFF729FE0020FFF71AFEA0
:100E300000221146501EFFF74FFB0FB030BD0000DF
:100E40000D48016841F00101016041680B4A114001
:100E5000416001680A4A11400160016821F4802163
:100E60000160416821F4FE0141604FF41F0181607F
:100E70000449C00308607047001002400000FFF8FA
:100E8000FFFFF6FE08ED00E010B5406A0021C185C5
:100E9000C184FFF707FE10BD0168CA6822F4907292
:100EA000CA6001684A6922F001024A61202180F883
:100EB0003A10704710B590F83A10222901D002205C
:100EC00010BD8168B1F5805F11D00169002901680A
:100ED0001FD0496801F07F03816A4A1C82620B704F
:100EE000C18D491E0904090CC18518D02BE0026987
:100EF000816A002A0268526805D0D2B20A80816AEB
:100F0000491C8162ECE7C2F308020A80816A891CED
:100F1000F7E74A68816A4B1C83620A70E0E7016860
:100F2000CA6822F02002CA600168CA6822F480728E
:100F3000CA6001684A6922F001024A61202180F8F2
:100F40003A10FFF7ABFE002010BD00002DE9F04184
:100F5000044600680169E26821F4405111430161CF
:100F60002169A0680843616908432168CA6841F2A1
:100F70000C639A430243CA6020684169A26921F464
:100F80004071114341614C492068642532268842F2
:100F90003CD1FFF79FFB00EBC00101EB0010616843
:100FA0008900B0FBF1F7FFF795FB00EBC00101EB07
:100FB00000106168B0468900B0FBF1F0B0FBF5F0BD
:100FC0006FF01801484307EB800106EB0110B0FBFE
:100FD000F5F000F0F006FFF77DFB00EBC00101EB40
:100FE000001061688900B0FBF1F0B0FBF5F006EB92
:100FF0000016FFF76FFB00EBC00101EB001061680A
:101000008900B0FBF1F7FFF765FB3BE0FFF752FB10
:1010100000EBC00101EB001061688900B0FBF1F743
:10102000FFF748FB00EBC00101EB00106168B04620
:101030008900B0FBF1F0B0FBF5F06FF01801484308
:1010400007EB800106EB0110B0FBF5F000F0F006B5
:10105000FFF730FB00EBC00101EB00106168890075
:10106000B0FBF1F0B0FBF5F006EB0016FFF722FB4A
:1010700000EBC00101EB001061688900B0FBF1F7E3
:10108000FFF718FB00EBC00101EB0010616889005D
:10109000B0FBF1F0B0FBF5F06FF01801484307EB3F
:1010A000800108EB0110B0FBF5F0216800F00F00A3
:1010B00030448860BDE8F0810038014090F8391074
:1010C000212901D0022070478168B1F5805F016A53
:1010D0000BD04A1C0262026809785160C18C491E1B
:1010E0000904090CC1840ED017E009880268C1F315
:1010F0000801516001690029016A02D0491C01629E
:10110000ECE7891CFBE70168CA6822F08002CA602C
:101110000068C16841F04001C160002070470000D4
:101120000148FFF7C1BC000054000020FEE70000AA
:10113000014A024900F013B8811100085000002054
:1011400002E008C8121F08C1002AFAD17047704790
:10115000002001E001C1121F002AFBD170472DE9D8
:10116000F04116460F460446002503E03946B047D5
:10117000641C6D1C20780028F8D12846BDE8F08159
:1011800013B5012269460548FFF789FD0448017837
:101190000129FCD10021017000981CBD54000020E1
:1011A00000000020FFF71EF9FFF714FEFFF79EFD79
:1011B000FFF7CAFD03A0FFF7BBFF00BF00F058F820
:1011C000FCE7000053544D3332463130334338543A
:1011D0003620496E69742046696E73686564210D16
:1011E0000A0000002048416814293CD341681439A2
:1011F0004160EFF3108172B6826842F010028260A3
:1012000081F310888178491CC9B2817005292AD3DD
:1012100000228270EFF3108172B6836843F02003DE
:10122000836081F310880178491CC9B201700A29D2
:1012300019D30270EFF3108172B6836843F0400354
:10124000836081F310884178491CC9B241703C2900
:1012500009D34270EFF3108172B6826842F08002C7
:10126000826081F310887047140000207047704737
:101270002DE9F041114F00240125A7F10C0600BF14
:1012800004EB440007EB8002117805FA01F0B16825
:10129000084202D15178C9070AD0EFF3108172B623
:1012A000B3688343B36081F31088D2E901018847B2
:1012B000641CE4B2042CE3D3BDE8F08120000020DC
:1012C00001A0FFF735BF00007461736B5F313030F0
:1012D0006D732074657374210D0A00000000000016
:1012E00000000000010203040607080900000000D6
:1012F0000102030414130008000000205400000041
:101300004011000868130008540000204404000045
:101310005011000800000000010000001000000053
:101320000000000000A24A040000000000000000CD
:10133000000000000300000000000000E5110008AC
:1013400004000000000000006F120008050000000B
:10135000000000006D120008060000000000000000
:08136000C112000800000000AA
:04000005080000ED02
:00000001FF
