:020000040800F2
:10000000D8040020010100082B17000891160008F1
:1000100029170008010B0008292200080000000031
:10002000000000000000000000000000A11E000809
:10003000030B000800000000891B0008A51E000833
:100040001B0100081B0100081B0100081B01000820
:100050001B0100081B0100081B0100081B01000810
:100060001B0100081B0100081B0100081B01000800
:100070001B0100081B0100081B0100081B010008F0
:100080001B0100081B0100081B0100081B010008E0
:100090001B0100081B0100081B0100081B010008D0
:1000A0001B0100081B0100081B0100081B010008C0
:1000B0001B0100081B0100081B0100081B010008B0
:1000C0001B0100081B0100081B0100081B010008A0
:1000D0001B0100081D2200081B0100081B0100086D
:1000E0001B0100081B0100081B010008DFF80CD0F1
:1000F00000F06AFB004800474D2B0008D8040020A0
:100100000648804706480047FEE7FEE7FEE7FEE7B1
:10011000FEE7FEE7FEE7FEE7FEE7FEE73D1F00081D
:10012000ED000008202A04DB203A21FA02F0002129
:10013000704721FA02F3D040C2F1200291400843F7
:1001400019467047D2B201E000F8012B491EFBD2DC
:1001500070470022F6E710B513460A4604461946D2
:10016000FFF7F0FF204610BD2DE9FE4F804681EAE3
:100170000300C00F0C46009021F0004123F0004521
:10018000B8EB0200A94105D24046214690461C46E4
:100190000B46024623F00040104347D0270DC7F31B
:1001A0000A00C3F30A510290401A019040286BDA0A
:1001B000C3F3130040F4801B0098924620B1002343
:1001C000D2EB030A63EB0B0B01985946C0F14002D6
:1001D000504600F013FA06460D4650465946019A1D
:1001E00000F01BFA10EB08006141002487EA11526D
:1001F00084EAE7731A4340D0009A62B3019A012A55
:100200004FEA075215DC001B61EB02014FF0004280
:1002100002EA0752CDE90042001C41F58011324646
:100220002B4600F052FA03B0BDE8F08F404621465D
:10023000F9E7001B61EB0201001C41F58013001877
:100240005B412018A2F5001747EB030140EAD57087
:10025000B6196D4111E06D084FEA360645EAC075E2
:100260004FEA0752001B61EB0201001C41F58011AF
:1002700049084FEA30000019514132462B4603B07D
:10028000BDE8F04F00F012BA0098012240000023B0
:10029000D0EB020263EBE073009821464FEAE07472
:1002A000B8EB000061EB0401E9E783F000435BE792
:1002B00081F0004158E72DE9FE4F81EA030404F084
:1002C000004421F0004100944FF0000B23F0004364
:1002D00050EA01045ED052EA03045BD0C3F30A542F
:1002E000C1F30A552C44A4F2F3340194A0FB025448
:1002F000C1F3130141F48011C3F3130343F48013DA
:1003000001FB024400FB034E840A970A44EA81542D
:1003100047EA8357A4FB076802958D0A05FB07850A
:100320004FEA932C04FB0C542705029D4FEA065814
:1003300047EA1637B5EB08056EEB070C870E920EF1
:1003400047EA811742EA8312A7FB0201B6EB0B01D1
:1003500064EB00042B0D43EA0C335E1844EB1C5095
:10036000DA465146E7FB0201C5F313044FEA0B33AB
:1003700043EA14534FEA0432019C43EA0603A4F112
:100380000C040294009CCDE900B400F09EF903B087
:10039000BDE8F08F00200146F9E72DE9F04D81EA34
:1003A000030404F0004B21F0004514464FF0000A0E
:1003B00023F0004150EA050220D054EA01021DD08A
:1003C000C5F30A570246C5F31303C1F31300C1F383
:1003D0000A5640F4801543F48013A7EB0608101B5F
:1003E000D64608F2FD3873EB050002D308F1010888
:1003F00001E092185B41B8F1000F03DA00200146DA
:10040000BDE8F08D00204FF48011064684460EE0D2
:10041000171B73EB050705D3121B63EB050306439C
:100420004CEA010C49084FEA300092185B4150EA4F
:100430000107EDD152EA030012D082EA040083EAF8
:100440000501084305D0101BAB4106D20122002351
:1004500006E000224FF0004302E06FF0010253106B
:100460001AEB06004CEB085110EB0A0041EB0B01B4
:10047000BDE8F04D00F01AB970B521F00043034318
:100480000CD0C1F30A550024D5EB040564EB04033A
:10049000D617AD1AB34102DB0020014670BD20180B
:1004A00041EB025170BDC10F80EAE0700844CA07F9
:1004B0009623002100F0CCB80EB540F233410291F2
:1004C0000021CDE900110A460B4600F0FEF803B00A
:1004D00000BD70B5C1F30A5201F000450024C1F31C
:1004E000130140F2FF3341F480119A4201DA0020F7
:1004F00070BD40F233439A42A2F2334203DC5242CF
:10050000FFF710FE00E090402C43F1D0404270BD58
:1005100000F0004230F000400AD0C10D01F56071DA
:10052000C0F3160042EA0151C20840071143704768
:1005300000200146704701F0004330B421F0004133
:1005400050EA010206D00A0DA2F56072C1F3130150
:10055000002A02DC30BC00207047440F44EAC1048A
:10056000C100E01830BC00EBC25000F068B830B5F4
:100570000B46014600202022012409E021FA02F561
:100580009D4205D303FA02F5491B04FA02F52844FB
:10059000151EA2F10102F1DC30BD2DE9F05F054628
:1005A000002092469B4688460646814640241BE032
:1005B0002846414647462246FFF7B4FD53465A4671
:1005C000C01A914110D311461846224600F016F881
:1005D0002D1A67EB01084F4622460120002100F04A
:1005E0000DF817EB00094E41201EA4F10104DFDCD9
:1005F000484631462A464346BDE8F09F202A04DBA0
:10060000203A00FA02F1002070479140C2F1200325
:1006100020FA03F3194390407047202A06DBCB17DA
:10062000203A41FA02F043EAE07306E041FA02F3AD
:10063000D040C2F12002914008431946704700297A
:10064000A8BF7047401C490008BF20F00100704758
:1006500010B4B0FA80FC00FA0CF050EA010404BFB8
:1006600010BC704749B1CCF1200421FA04F411FA0E
:100670000CF118BF012121430843A3EB0C01CB1D52
:100680004FEA00614FEA102042BF002010BC7047C3
:1006900000EBC35010440029A4BF10BC7047401C9D
:1006A000490008BF20F0010010BC704710B5141EAF
:1006B00073F1000408DA401C41F1000192185B411B
:1006C0001A4301D120F0010010BD2DE9F04D9246F2
:1006D0009B4611B1B1FA81F202E0B0FA80F2203209
:1006E0009046FFF78BFF04460F4640EA0A0041EAB6
:1006F0000B0153465A46084313D0114653EA0100F2
:1007000019D0C8F140025046FFF70CFD05460E46D1
:10071000504659464246FFF771FF084305D0012075
:1007200004E020463946BDE8F08D0020054346EA46
:10073000E0762C4337430A986305E40AA0EB0800EF
:100740000022FD0A44EA47540A3002D5002001463F
:10075000E9E7010510196941DDE90845001969411A
:10076000BDE8F04DA2E7C1F30A52C1F3130140F214
:10077000FF3341F480119A4202DA002001467047AB
:1007800040F233439A42A2F2334202DC5242FFF774
:10079000C9BCFFF733BF000030B5041E71F100047F
:1007A00004DB4FF00044404264EB0101141E73F17E
:1007B000000405DB1C464FF00043524263EB040388
:1007C000994208BF904230BD064C074D06E0E068F4
:1007D00040F0010394E8070098471034AC42F6D388
:1007E000FFF788FCF02E0008102F000870B5144D9C
:1007F0004FF4805400222146284600F0B4FA2A1D06
:10080000106820F470001060106840F44010106010
:1008100000226100284600F0A6FA022002F06FF9DB
:1008200001222146284600F09EFA022002F067F9D4
:1008300021462846BDE87040002200F094BA00002E
:10084000000C0140124810B5816986B041F00801E2
:10085000816180690F4C00F008000490009869469F
:1008600040F440500090012001900290032003903A
:10087000204600F095F901221103204600F073FA9A
:1008800001225103204600F06EFA06B010BD0000B0
:1008900000100240000C014070B5144D4FF480541C
:1008A00000222146284600F05EFA2A1D106820F436
:1008B00070001060106840F4401010600122510375
:1008C000284600F050FA022002F019F901222146D0
:1008D000284600F048FA022002F011F92146284685
:1008E000BDE87040002200F03EBA0000000C01405C
:1008F0002DE9F04780461B480024016821F470016F
:100900000160016841F40001016086142546071F5B
:100910004FF4005900223146384600F024FA0220F4
:1009200002F0EDF801223146384600F01CFA60066C
:10093000040E4946384600F011FA08B1641CE4B2CE
:10094000012002F0DCF86D1CEDB2082DE2D3B8F105
:10095000000F04D0FFF74AFF2046BDE8F087FFF7FD
:100960009BFFF9E7040C01402DE9F04105461B48C7
:10097000016821F470010160016841F440110160D7
:100980008614071F00223146384600F0ECF9002497
:100990004FF40058280601D5012200E0002241460C
:1009A000384600F0E0F96806050E022002F0A7F8CC
:1009B00001223146384600F0D6F9022002F09FF8B5
:1009C00000223146384600F0CEF9022002F097F8B6
:1009D000641CE4B2082CDDD3BDE8F081040C0140B6
:1009E00070B51448016821F470010160016841F498
:1009F000401101608414051F01222146284600F0A1
:100A0000B2F9012256033146284600F0ACF9042021
:100A100002F075F800223146284600F0A4F90420BF
:100A200002F06DF821462846BDE87040002200F033
:100A30009AB90000040C014070B51448016821F413
:100A400070010160016841F4401101608414051FC8
:100A500000222146284600F086F966000022314631
:100A6000284600F080F9042002F049F801222146CE
:100A7000284600F078F901223146284600F073F943
:100A8000BDE87040042002F03AB80000040C0140B8
:100A90002DE9F04119480024016821F4700101603A
:100AA000016841F4000101604614051F012231462E
:100AB000284600F058F9012002F021F8012217031E
:100AC0003946284600F04FF9012002F018F808E0F6
:100AD000641CE4B2FA2C04D9FFF7AEFF0120BDE894
:100AE000F0813146284600F039F90028F0D1002283
:100AF0003946284600F037F90020F0E7040C0140A1
:100B0000FEE770477047000010B590F821100024F0
:100B1000022903D00421816301243DE001680A68B1
:100B200022F00E020A6001680A6822F001020A60DF
:100B30001A4A0168914201D1012121E0174A143279
:100B4000914201D110211BE0144A2832914201D177
:100B5000891515E0114A3C32914201D189140FE008
:100B60000E4A5032914202D14FF4803108E00B4AD4
:100B70006432914202D14FF4801101E04FF0807154
:100B8000064A083A5160012180F82110002180F8BE
:100B90002010416B01B18847204610BD080002407B
:100BA0002DE9F84FDFF890A100220AF1040B14465A
:100BB00001274FF00F090BF1040E00BF0B6807FA75
:100BC00004F52B40AB4274D1DFF870C14E68A6EB40
:100BD0000C0866452BD00DDC032E34D005DC36B373
:100BE000012E19D0022E2FD11BE0112E16D0122E5D
:100BF0002AD119E0B8F5881F19D006DCB8F5803F76
:100C000015D0B8F5801F1FD111E0B8F5001F0ED028
:100C1000B8F5041F18D10AE0CA6815E0CA68121DA9
:100C200012E0CA6808320FE0CA680C320CE08A6829
:100C30002AB1012A4FF0080203D0456104E00422E2
:100C400002E0056100E00022FF2B01D8064601E02A
:100C500000F104064FEA840501D9A5F12005D6F874
:100C600000C009FA05F82CEA080C02FA05F54CEA6E
:100C7000050CC6F800C04D68ED0057D5304DAE6983
:100C800046F00106AE61AD6924F0030605F00105EA
:100C900000952C4D06EB050CDCF80850A6074FEA32
:100CA000167809FA08F6B543274EB04202D100265D
:100CB00010E03BE0254EB04201D101260AE0244E6F
:100CC000B04201D1022605E0224EB04201D10326F6
:100CD00000E0042606FA08F62E43CCF808604D68BA
:100CE000DAF80060ED03554601D51E4300E09E434F
:100CF0002E604D68DBF80060AD035D4601D51E43F4
:100D000000E09E432E604D68DEF80060ED027546FF
:100D100001D51E4300E09E432E604D68AD020E4D8E
:100D20002E6801D51E4300E09E432E60641C102CEB
:100D3000FFF444AFBDE8F88F00040140000011103B
:100D4000001002400000014000080140000C01407A
:100D500000100140001401400C040140806808406C
:100D600000D0012070470AB1016170470904FBE718
:100D70000148806870470000040000200248816834
:100D8000027811448160704704000020074810B5C4
:100D9000016841F010010160032000F091F800208B
:100DA00000F006F800F024F8002010BD00200240FA
:100DB00070B50D4D04464FF47A712878B1FBF0F010
:100DC0000A490968B1FBF0F000F02CFB48B9102C7F
:100DD00007D200222146501E00F052F800206C601D
:100DE00070BD012070BD0000040000201000002034
:100DF0001C4808B5816941F001018161816901F0F8
:100E000001010091C16941F08051C161C0690022B6
:100E100000F08050009011466FF00B0000F030F8A9
:100E2000002211466FF00A0000F02AF80022114655
:100E30006FF0090000F024F800221146501F00F066
:100E40001FF800221146101F00F01AF80022114668
:100E5000901E00F015F80022BDE808401146501E13
:100E600000F00EB80010024000F01F020121914076
:100E70004009800000F1E020C0F800117047000038
:100E8000F0B40E4B1B680C46C3F30223C3F10705F5
:100E9000042D00D90425191D072901D2002300E0E3
:100EA000DB1E012606FA05F1491E214099409E40AD
:100EB000761E16403143F0BC00F038BC0CED00E06B
:100EC000064900F0070208684FF6FF03184040EAA1
:100ED0000220034A10430860704700000CED00E058
:100EE0000000FA052DE9F047DFF8548105460E466B
:100EF000D8F8000000F00700B0420CD2D8F800107B
:100F000021F007013143C8F80010D8F8000000F0C4
:100F10000700B0426FD128684A4C810712D54007BC
:100F200003D5606840F4E06060602878000703D56E
:100F3000606840F4605060606068A96820F0F0006C
:100F4000084360602878C00744D06868012816D03C
:100F50002168022816D0890700294CDA616821F03F
:100F6000030101436160FFF703FF6968074641F22F
:100F7000883001290ED00229814618D026E0216848
:100F80008903E9E78901E7E7FFF7F2FEC11B49455D
:100F900001D918E081466068C0F381000128F3D1CF
:100FA00018E000BFFFF7E4FEC11B49450BD860689D
:100FB000C0F381000228F5D10CE000BFFFF7D8FE96
:100FC000C11B494502D90320BDE8F087606810F0D5
:100FD0000C0FF3D1D8F80010404601F00701B142E0
:100FE0000BD9016821F0070131430160006800F06E
:100FF0000700B04201D00120E6E72878400705D578
:101000006068E96820F4E0600843606028780007C1
:1010100006D56068296920F4605040EAC10060602C
:1010200000F03CF86168084AC1F30311515CC84004
:10103000064908600020FFF7BBFE0020C4E700005F
:101040000020024000100240D82E000810000020AE
:10105000014800687047000010000020044805495E
:1010600000684968044AC1F30221515CC8407047D6
:101070001000002000100240E82E00080448054936
:1010800000684968044AC1F3C221515CC8407047F6
:101090001000002000100240E82E000812A185B0C8
:1010A0000FC98DE80F0014A0144A0068049051681D
:1010B000134801F00C03042B10D0082B0ED1C1F300
:1010C0008343C9031DF803000AD5516804AAC1F37C
:1010D0004041515C0A4A5043B0FBF1F005B0704703
:1010E00008494843FAE70000020304050607080917
:1010F0000A0B0C0D0E0F1010010200000010024030
:1011000000127A0000093D002DE9F84F04460078EE
:10111000B94DC00748D06868C0F38100012807D0E6
:101120006868C0F38100022809D16868C00306D549
:101130002868800338D5606800286FD034E0606884
:10114000B0F5803F0BD010B1B0F5A02F11D02868BA
:1011500020F480302860286820F4802002E028688D
:1011600040F480302860606888B1FFF701FE0646D1
:1011700009E0286840F480202860F0E7FFF7F8FDD8
:10118000801B642875D828688003F7D50CE0FFF72A
:10119000EFFD064605E000BFFFF7EAFD801B64286F
:1011A000F0D828688003F7D42078944E80074FF059
:1011B00001094FF000083BD5686810F00C0F07D00C
:1011C0006868C0F38100022809D16868C00306D4AA
:1011D0002868800714D5206901281FD110E02069F4
:1011E000B0B1C6F80090FFF7C3FD074605E000BFA9
:1011F000FFF7BEFDC01B0228C4D828688007F7D5BA
:101200002868616920F0F80040EAC10028600FE01A
:10121000C6F80080FFF7ACFD074606E0E9E000BF36
:10122000FFF7A6FDC01B022823D828688007F7D443
:10123000207800072CD57248A169D9B1C0F8009078
:10124000FFF796FD074604E0FFF792FDC01B02285A
:101250000FD8686A8007F7D56A484FF4FA510068DA
:10126000B0FBF1F0009000BF0098411E0091FAD24F
:101270000EE080E0C0F80080FFF77AFD074604E04A
:10128000FFF776FDC01B022875D8686A8007F7D47F
:101290002078400760D5E8690027C00008D4E869D5
:1012A00040F08050E861E869012700F0805000902C
:1012B00055480168C90513D40168834641F480711B
:1012C0000160FFF755FD824606E000BFFFF750FDC5
:1012D000A0EB0A0064284ED8DBF80000C005F5D565
:1012E000E06801280AD008B1052813D0286A20F048
:1012F00001002862286A20F0040002E0286A40F019
:1013000001002862E06841F2883B98B1FFF730FDA8
:1013100082460BE0286A40F004002862EEE700BF36
:10132000FFF726FDA0EB0A0159455AD8286A800725
:10133000F6D50CE0FFF71CFD824605E0FFF718FD2F
:10134000A0EB0A0159454CD8286A8007F6D41FB192
:10135000E86920F08050E861E06988B36968C1F30A
:101360008101022945D00228C6F8608004D0FFF729
:10137000FFFC044638E034E0FFF7FAFC074604E0DF
:10138000FFF7F6FCC01B02282BD828688001F7D491
:10139000206AB0F5803F05D16868A16820F400306C
:1013A00008436860D4E908010843696821F47411AE
:1013B00008436860C6F86090FFF7DAFC044606E070
:1013C00015E000BFFFF7D4FC001B022809D82868ED
:1013D0008001F7D50BE000BFFFF7CAFC001B022815
:1013E00002D90320BDE8F88F28688001F4D40020DA
:1013F000F8E70120F6E7000000100240000042423A
:101400008004424210000020007000404FF0E021B4
:101410000428086903D020F004000861704740F0F8
:101420000400FAE710B5401EB0F1807F01D301201F
:1014300010BD4FF0E02460610F21601700F076F9D5
:101440000020A06107202061002010BD704700002F
:1014500070B5026804461068D168536910F00F0F28
:1014600051D003F0010501F4907635435DD0C207F9
:1014700005D0CA0503D5E26B42F00102E2634207E0
:1014800005D5DA0703D0E26B42F00202E26382077D
:1014900005D5DA0703D0E26B42F00402E2630207EB
:1014A00005D5DA0703D0E26B42F00802E263E26B93
:1014B000002A34D0800604D5880602D5204600F0E4
:1014C00077FD20684069E16BC0F3801001F00801EE
:1014D0000143204624D000F05DFD206841694906A3
:1014E0001AD5416921F040014161606BA0B11B49EF
:1014F0004163606BFFF708FB002810D0606B416B05
:10150000BDE87040084783060FD58B060DD52046F1
:10151000BDE8704000F04CBD2046FFF797FF70BD5E
:10152000FFF794FF0020E06370BD030606D50B06AD
:1015300004D52046BDE8704000F03EBE4006F3D51D
:101540004806F1D5D168204621F04001D160202124
:1015500084F8391000F096F870BD0000851F00086F
:1015600070B5040004D094F83900002510B106E0ED
:10157000012070BD84F83850204600F023F8242064
:1015800084F839002068C16821F40051C160204608
:1015900000F05AFD2068016921F490410161206842
:1015A000416921F02A0141612068C16841F400517C
:1015B000C160E563202084F8390084F83A000020F7
:1015C00070BD000030B585B00024009401940294F1
:1015D00003940068184988422CD11848816941F465
:1015E00080418161816901F480410491816941F008
:1015F000040181618069124D00F0040004904FF4F1
:101600000070009002200190032003906946284654
:10161000FFF7C6FA2815CDE900046946284602946A
:10162000FFF7BEFA002211462520FFF729FC2520EE
:10163000FFF71AFC05B030BD003801400010024031
:1016400000080140704790F83930202B18D1A9B11B
:10165000A2B190F83830012B12D001628284C2848A
:101660000021C163212280F8392080F838100068F9
:10167000C16841F08001C1600020704701207047BF
:1016800002207047014901200870704700000020C7
:10169000FEE7000030B585B00024124801940394A1
:1016A000816941F004018161816901F004010491C3
:1016B000816941F0080181618069012500F008001D
:1016C00004904FF400400090694602950648FFF7E9
:1016D00067FA08208DE8310069460448FFF760FA90
:1016E00005B030BD0010024000080140000C014070
:1016F0000C4810B50A4901604FF4E1314160002106
:1017000081600C22C160C0E904128161C161FFF7F0
:1017100027FF002803D0BDE81040FFF7F3B910BD44
:101720000038014098000020FEE770470907090EC5
:10173000002806DA00F00F0000F1E02080F8141D08
:10174000704700F1E02080F80014704710B5124C8B
:10175000002201212046FFF706FB206820F0F00060
:101760002060206840F030002060002202212046E6
:10177000FFF7F9FA022001F051FA01221146204642
:10178000FFF7F1FA022001F049FA20460022BDE8F5
:1017900010400121FFF7E7BA00080140124810B5D8
:1017A000816986B041F00401816180690F4C00F0CD
:1017B000040004900098694640F003000090012066
:1017C00001900290032003902046FFF7E9F90122DF
:1017D00011462046FFF7C7FA012202212046FFF7F3
:1017E000C2FA06B010BD000000100240000801401F
:1017F00010B5124C002201212046FFF7B4FA2068F0
:1018000020F0F0002060206840F0300020600122CD
:1018100002212046FFF7A7FA022001F0FFF901227A
:1018200011462046FFF79FFA022001F0F7F9204603
:101830000022BDE810400121FFF795BA00080140E1
:101840002DE9F041184C07460025206820F0F000F3
:101850002060206840F0800020602E460022012198
:101860002046FFF780FA022001F0D8F90122114644
:101870002046FFF778FA6806050E02212046FFF79A
:101880006DFA08B16D1CEDB2012001F0C7F9761CAC
:10189000F6B2082EE2D327B1FFF758FF2846BDE87D
:1018A000F081FFF7A5FFF9E70008014070B5194E78
:1018B00005463046316821F0F0013160316841F071
:1018C0003001316000220121FFF74DFA0024280683
:1018D00001D5012200E0002202213046FFF743FA41
:1018E0006806050E022001F099F9012211463046E2
:1018F000FFF739FA022001F091F900220121304668
:10190000FFF731FA022001F089F9641CE4B2082CD7
:10191000DDD370BD0008014010B5124C206820F0E6
:10192000F0002060206840F0300020600122114665
:101930002046FFF718FA012202212046FFF713FA8A
:10194000042001F06BF9002202212046FFF70BFA78
:10195000042001F063F920460022BDE81040012177
:10196000FFF701BA0008014010B5124C206820F0C2
:10197000F0002060206840F030002060002201214B
:101980002046FFF7F0F9002202212046FFF7EBF98D
:10199000042001F043F9012211462046FFF7E3F944
:1019A000012202212046FFF7DEF9BDE810400420A5
:1019B00001F034B90008014070B5184C00252068CA
:1019C00020F0F0002060206840F0800020600122BC
:1019D00002212046FFF7C7F9012001F01FF901227B
:1019E00011462046FFF7BFF9012001F017F907E083
:1019F0006D1CEDB2FA2D03D9FFF7B6FF012070BDC3
:101A000002212046FFF7AAF90028F1D10022012186
:101A10002046FFF7A8F9002070BD00000008014033
:101A200010B50446FFF778FFA220FFF73FFFFFF74E
:101A3000C3FFE0B2FFF73AFFFFF7BEFFFFF76CFF0F
:101A4000A320FFF733FFFFF7B7FF0020FFF7F8FEF3
:101A50000446FFF789FF204610BD000010B508209E
:101A6000FFF7DEFF1A4C60700720FFF7D9FF00F088
:101A70001F00A0700520FFF7D3FF00F03F00E070CB
:101A80000420FFF7CDFF00F03F0020710320FFF797
:101A9000C7FF00F07F0060710220FFF7C1FF00F078
:101AA0007F00A0710620FFF7BBFF00F00F00E07180
:101AB00008490020225C130902F00F0203EB8303A4
:101AC00002EB43020A54401CC0B20828F2D310BDF6
:101AD000800000202C00002070B50D460446FFF762
:101AE0001BFFA220FFF7E2FEFFF766FF2046FFF78D
:101AF000DDFEFFF761FF2846FFF7D8FEFFF75CFF2A
:101B0000FFF732FF4FF4FA6001F088F8002070BD53
:101B100070B51C4A00200A2102F10804155CB5FBCF
:101B2000F1F3B5FBF1F601FB165505EB0313235456
:101B3000401CC0B20828F1D320210020FFF7CCFFC1
:101B400061780820FFF7C8FFA1780720FFF7C4FFDE
:101B5000E1780520FFF7C0FF21790420FFF7BCFFE3
:101B600061790320FFF7B8FFA1790220FFF7B4FFE6
:101B7000E1790620FFF7B0FFBDE87040002108467C
:101B8000FFF7AABF780000207047000070B5144D21
:101B90004FF48054002221462846FFF7E4F82A1D1E
:101BA000106820F470401060106840F440501060DD
:101BB000002261102846FFF7D6F8022000F0A9FFA6
:101BC000012221462846FFF7CEF8022000F0A1FFAF
:101BD00021462846BDE870400022FFF7C4B8000047
:101BE00000080140124810B5816986B041F0040137
:101BF000816180690F4C00F00400049000986946F0
:101C000040F4C05000900120019002900320039006
:101C10002046FEF7C5FF012211032046FFF7A3F877
:101C20000122D1022046FFF79EF806B010BD000049
:101C3000001002400008014070B5144D4FF480546C
:101C4000002221462846FFF78EF82A1D106820F44E
:101C500070401060106840F4405010600122D102C2
:101C60002846FFF780F8022000F053FF01222146AA
:101C70002846FFF778F8022000F04BFF214628465F
:101C8000BDE870400022FFF76EB800000008014078
:101C90002DE9F04780461B480024016821F470417B
:101CA0000160016841F40041016086142546071F68
:101CB0004FF40069002231463846FFF754F80220FD
:101CC00000F027FF012231463846FFF74CF8600646
:101CD000040E49463846FFF741F808B1641CE4B2E7
:101CE000012000F016FF6D1CEDB2082DE2D3B8F113
:101CF000000F04D0FFF74AFF2046BDE8F087FFF74A
:101D00009BFFF9E7040801402DE9F04105461B4817
:101D1000016821F470410160016841F440510160A3
:101D20008614071F002231463846FFF71CF80024AE
:101D30004FF40068280601D5012200E00022414648
:101D40003846FFF710F86806050E022000F0E1FEA5
:101D5000012231463846FFF706F8022000F0D9FE8E
:101D6000002231463846FEF7FEFF022000F0D1FE89
:101D7000641CE4B2082CDDD3BDE8F0810408014006
:101D800070B51448016821F470410160016841F4A4
:101D9000405101608414051F012221462846FEF7A8
:101DA000E2FF0122D60231462846FEF7DCFF04207E
:101DB00000F0AFFE002231462846FEF7D4FF042093
:101DC00000F0A7FE21462846BDE870400022FEF73D
:101DD000CABF00000408014070B51448016821F42E
:101DE00070410160016841F4405101608414051F95
:101DF000002221462846FEF7B6FF66100022314633
:101E00002846FEF7B0FF042000F083FE01222146A1
:101E10002846FEF7A8FF012231462846FEF7A3FF19
:101E2000BDE87040042000F074BE000004080140CA
:101E30002DE9F04119480024016821F47041016046
:101E4000016841F400410160C614051F01223146BA
:101E50002846FEF788FF012000F05BFE01221703F1
:101E600039462846FEF77FFF012000F052FE08E0C9
:101E7000641CE4B2FA2C04D9FFF7AEFF0120BDE8E0
:101E8000F08131462846FEF769FF0028F0D1002294
:101E900039462846FEF767FF0020F0E704080140B6
:101EA0007047000010B5FEF769FF07480168491C3C
:101EB0000160EFF3108072B604490A6842F008022C
:101EC0000A6080F3108810BD1C0000202000002054
:101ED00030B58FB028216846FEF73BF914210AA8D7
:101EE000FEF737F902250120049000951020059097
:101EF00000244FF4C010CDE9084007956846FFF76D
:101F000003F90F200A90CDE90B540D9401210AA882
:101F10000E94FEF7E7FFFFF79BF84FF4FA51B0FB82
:101F2000F1F0FFF77FFA0020FFF770FA0022114668
:101F3000501EFEF7A5FF0FB030BD00000D48016830
:101F400041F00101016041680B4A114041600168A4
:101F50000A4A11400160016821F480210160416852
:101F600021F4FE0141604FF41F0181600449C00368
:101F700008607047001002400000FFF8FFFFF6FE07
:101F800008ED00E010B5406A0021C185C184FFF76B
:101F90005DFA10BD0168CA6822F49072CA600168D7
:101FA0004A6922F001024A61202180F83A10704704
:101FB00010B590F83A10222901D0022010BD816896
:101FC000B1F5805F11D00169002901681FD049680F
:101FD00001F07F03816A4A1C82620B70C18D491E29
:101FE0000904090CC18518D02BE00269816A002A16
:101FF0000268526805D0D2B20A80816A491C8162A7
:10200000ECE7C2F308020A80816A891CF7E74A6894
:10201000816A4B1C83620A70E0E70168CA6822F09B
:102020002002CA600168CA6822F48072CA6001682E
:102030004A6922F001024A61202180F83A10FFF734
:1020400001FB002010BD00002DE9F04104460068AE
:102050000169E26821F44051114301612169A068DE
:102060000843616908432168CA6841F20C639A43D6
:102070000243CA6020684169A26921F4407111439A
:1020800041614C4920686425322688423CD1FEF7E4
:10209000F5FF00EBC00101EB001061688900B0FBA7
:1020A000F1F7FEF7EBFF00EBC00101EB00106168F8
:1020B000B0468900B0FBF1F0B0FBF5F06FF018010D
:1020C000484307EB800106EB0110B0FBF5F000F090
:1020D000F006FEF7D3FF00EBC00101EB00106168D2
:1020E0008900B0FBF1F0B0FBF5F006EB0016FEF74F
:1020F000C5FF00EBC00101EB001061688900B0FB77
:10210000F1F7FEF7BBFF3BE0FEF7A8FF00EBC001D5
:1021100001EB001061688900B0FBF1F7FEF79EFF4C
:1021200000EBC00101EB00106168B0468900B0FB14
:10213000F1F0B0FBF5F06FF01801484307EB8001B8
:1021400006EB0110B0FBF5F000F0F006FEF786FF9D
:1021500000EBC00101EB001061688900B0FBF1F0F9
:10216000B0FBF5F006EB0016FEF778FF00EBC001C0
:1021700001EB001061688900B0FBF1F7FEF76EFF1C
:1021800000EBC00101EB001061688900B0FBF1F0C9
:10219000B0FBF5F06FF01801484307EB800108EB46
:1021A0000110B0FBF5F0216800F00F0030448860AA
:1021B000BDE8F0810038014090F83910212901D0A4
:1021C000022070478168B1F5805F016A0BD04A1C1C
:1021D0000262026809785160C18C491E0904090C29
:1021E000C1840ED017E009880268C1F3080151606C
:1021F00001690029016A02D0491C0162ECE7891CCF
:10220000FBE70168CA6822F08002CA600068C16802
:1022100041F04001C1600020704700000148FFF715
:1022200017B9000098000020FEE700000FB4054B2E
:1022300010B503A9044A029800F0CAF810BC5DF872
:1022400014FB0000292B00089400002002E008C8BD
:10225000121F08C1002AFAD170477047002001E020
:1022600001C1121F002AFBD1704700002DE9FF5F5A
:10227000DDE90220010DDDF838B0024318D044F644
:102280001050A1F2FF3141430D140F98012820D0C6
:10229000A5EB0B00401C5FEA000A4FF00004474E1C
:1022A000DFF81C91A046504616D5CAF1000728E079
:1022B0000F98012443A2012808D0002100980F9B09
:1022C000C0E90021C0E90243BDE8FF9F6FEA0B01AE
:1022D000F4E7CBF10000DEE7074612E0F80707D08D
:1022E0002246334640464946FDF7E5FF804689468B
:1022F0002246334610461946FDF7DDFF04460E46DA
:102300007F10002FEAD1DDE90201BAF1000F424649
:102310004B4602DAFDF7CFFF01E0FEF73EF8044638
:102320000E460022284BFEF737FA03D84FF0FF3055
:10233000014607E00022254B20463146FDF714FFF9
:10234000FEF711FA102409E0002C0ADB0A22002310
:10235000FEF723F9019B30321A55641E50EA010240
:10236000F2D1641C019AC4F1110314440F9A012A9A
:1023700003D0012208430DD10AE0084304D0002015
:102380004FF0110B0F9080E7A3EB0B056D1E0DE0D6
:102390005B4504DD4FF0000205F1010504E003DABE
:1023A0004FF00002A5F10105002AECD000980F992A
:1023B000C0E90231C0E9004586E700000000244082
:1023C0000000F03F300000000000F0430000E03F5C
:1023D0002DE9FF4F95B09B468946064600250FE242
:1023E000252877D100242746F84A0121059400E0EA
:1023F000044316F8013F203B01FA03F01042F7D1E5
:1024000030782A2811D06FF02F033078A0F13002F5
:10241000092A16D8059A44F0020402EB820203EB63
:1024200042021044761C0590EFE759F8042B059200
:10243000002A03DA504244F40054059044F00204A8
:10244000761C30782E2816D116F8010F44F00404BB
:102450002A280DD06FF02F023078A0F13003092B1D
:1024600009D807EB870302EB4303C718761CF3E791
:1024700059F8047B761C30786C280FD006DC4C2889
:1024800017D068280DD06A2814D104E0742810D021
:102490007A280FD10DE044F400140AE044F48014CB
:1024A00001E044F440147278824202D104F58014B1
:1024B000761C761C307866280BD013DC582877D031
:1024C00009DC002875D04528F6D04628F4D04728E6
:1024D0001AD19DE118E0632835D0642879D06528A9
:1024E00012D195E1702873D008DC6728F1D06928F3
:1024F0006FD06E280DD06F2806D1B5E073282CD090
:10250000752875D0782874D05A46179990476D1C55
:1025100075E1C4F30250022809D003280DD0D9F880
:10252000001004280DD00D6009F1040967E1D9F805
:102530000010EA17C1E90052F6E7D9F800100D8043
:10254000F2E70D70F0E719F8041B8DF80010002079
:102550008DF80100EA46012003E059F804AB4FF082
:10256000FF3061074FF0000102D40DE008F10101D6
:102570008846B9420FDA8045F8DB1AF808100029BE
:10258000F4D108E008F1010188468142FADB1AF82B
:1025900008100029F6D105985B46A0EB08072146F4
:1025A0003846179A00F094FA284400EB080507E033
:1025B0004DE029E10DE01AF8010B5A4617999047B2
:1025C000B8F10108F7D25B4621463846179A13E165
:1025D00042E00A220092C4F302524FF0000A022A9B
:1025E00008D059F804CB032A4FEAEC710AD00DE069
:1025F00029E02AE009F1070121F00702F2E802C10F
:10260000914609E00FFA8CFC4FEAEC71042A03D1E1
:102610004FFA8CFC4FEAEC71002907DA0A460021D8
:10262000DCF1000C61EB02012D2202E0220504D551
:102630002B228DF80420012203E0E20701D02022A2
:10264000F7E7904659E00A2102E010220DE0102140
:102650004FF0000A00910BE010224FF0000A44F006
:1026600004040827009203E008224FF0000A0092B9
:10267000C4F30252022A05D059F804CB0021032AE0
:1026800008D009E009F1070121F00702F2E802C1D0
:10269000914605E01FFA8CFC042A01D10CF0FF0CD6
:1026A0004FF00008220728D5702806D0009B83F041
:1026B000100353EA0A0305D00EE040228DF80420EF
:1026C000012208E05CEA010206D030228DF80420E5
:1026D0008DF8050002229046009B83F0080353EA20
:1026E0000A030AD15CEA010201D1620705D5302252
:1026F0008DF804204FF001087F1E582804D034A024
:1027000003900EA802900DE036A0F9E7534660460C
:10271000009AFDF742FF84460398825C0298401EAF
:10272000029002705CEA0100F0D1029806A9081A32
:1027300000F1200A600702D524F4803400E001276C
:10274000574502DDA7EB0A0000E0002000EB0A017C
:10275000009005984144401A0590E00306D45B467A
:102760002146179A059800F0B3F90544002706E0C2
:1027700001A85A46C05D179990476D1C7F1C4745BC
:10278000F6DBE0030CD55B462146179A059800F06E
:102790009FF9054404E030205A46179990476D1C74
:1027A0000099481E00900029F5DC08E00298029983
:1027B0005A460078491C0291179990476D1CBAF14E
:1027C0000001AAF1010AF1DC65E10000092801001D
:1027D0003031323334353637383961626364656697
:1027E0000000000030313233343536373839414259
:1027F000434445460000000000F058F90544761CAB
:10280000307800287FF4ECAD19B02846BDE8F08F91
:10281000620700D4062709F1070222F0070CFCE842
:102820000223E14603F000485FEA080C02D00FF2F1
:10283000702C0DE05FEA045C02D50FF2682C07E013
:102840005FEAC47C02D00FF2602C01E0AFF2700CA2
:102850004FF0FF3823F00043CDF850C065280CD06E
:1028600006DC452809D046281DD047283DD13DE04B
:10287000662818D067287ED138E00021112F01DBAF
:10288000112000E0781CCDE9000106A90EA8FFF791
:10289000EDFCDDE90F010E9A03910021009207F192
:1028A000010A04914DE04FF000400097CDE901107E
:1028B00006A90EA8FFF7DAFCDDE90F0203920E9BD2
:1028C00011990022DDF80CA00093049211B9791C33
:1028D00000EB010AB7EB0A0004D4C0F1FF3007F1A6
:1028E000010A0490AAEB0700019044E0012F00DAEE
:1028F00001270021112F01DD112000E03846CDE92C
:10290000000106A90EA8FFF7B1FCDDE90F010E9A40
:102910000391002104910092BA4621070CD4039937
:10292000514500DA8A46BAF1010F05DD009AAAF195
:102930000101515C302908D0B84202DA10F1040FCD
:1029400006DA0121CDE9011015E0AAF10101E9E75C
:10295000002805DC049901440491AAEB000102E07F
:10296000411C514500DD8A460499401A401C0190E3
:102970004FF000400290200704D40198504501DB3D
:10298000CDF8048000208DF84F0002980DF14F071C
:10299000B0F1004F25D02B200E9002984FF0020886
:1029A00000280CDA404202902D200E9007E00A2108
:1029B0000298FDF7DCFD3031029007F8011DB8F1F7
:1029C0000001A8F10108F2DC02980028EFD1791E7D
:1029D0000E980870307800F0200040F0450007F8AD
:1029E000020D12A8C01B00F107081498007800B16E
:1029F000012000EB0A01019801EBE07105984144C8
:102A0000401A401E0590E00306D45B462146179A03
:102A1000059800F05DF805441498007818B15A46FE
:102A2000179990476D1CE00324D55B462146179A01
:102A3000059800F04DF805441CE00498002807DBD9
:102A4000DDE90301884203DD0098405C179901E04D
:102A5000179930205A469047049805F10105401C0B
:102A600004900198401E019004D12E205A461799D7
:102A700090476D1CBAF10001AAF1010ADDDC05E006
:102A800017F8010B5A46179990476D1CB8F10001D1
:102A9000A8F10108F4DC5B462146179A0598ABE6DD
:102AA0002D0000002B000000200000002DE9F04167
:102AB000044600251E461746880404D405E039461E
:102AC0002020B0476D1C641EF9D52846BDE8F08172
:102AD0002DE9F041044600251E469046C80301D565
:102AE000302700E02027880404D505E04146384619
:102AF000B0476D1C641EF9D52846BDE8F081002161
:102B000004E00222521C642AFCD3491C8142F8D3FF
:102B10007047002104E00222521C642AFCD3491CA5
:102B20008142F8D37047000013B501226946054879
:102B3000FEF789FD044801780129FCD100210170CC
:102B400000981CBD9800002000000020FEF71EF930
:102B5000FFF7BEF9FEF79EFDFEF7CAFDFEF71EFE6B
:102B6000FEF7D6FFFFF73EF8FDF76CFE012000F000
:102B7000A5F803A0FFF75AFB00F0F8F8FCE7000007
:102B800053544D3332463130334338543620496E36
:102B900069742046696E73686564210D0A0000003F
:102BA00010B5FDF71DFF4720FDF7DEFEFDF770FFB6
:102BB0000120FDF79DFE134C20700020FDF798FECC
:102BC0006070FDF739FF4FF47A70FFF798FF2078B7
:102BD0006278214602EB00204860FDF764FCFDF7B7
:102BE00097FC4FF03332084BFDF7D7FBFDF7A3FC02
:102BF000FDF78EFC0246BDE810400B4603A0FFF730
:102C000015BB00008C0000203333F33F6C75784215
:102C1000756666203D202531660D0A00002104E01E
:102C20000222521C642AFCD3491C8142F8D370470B
:102C300070B50546FFF7A4F88020FFF765F8FFF7A9
:102C4000F7F8E320FFF760F8FFF7F2F8FFF798F8DE
:102C50008120FFF759F8FFF7EBF84FF42F70FFF7DB
:102C600058FF0120FFF714F80F4C60700020FFF7A9
:102C70000FF82070FFF7B0F82088FDF71DFC6FF00B
:102C80000F02FDF7F9FB4FF08042084BFDF713FBF5
:102C90004FF04042064BFDF708FBC5E90001BDE8D7
:102CA000704004A0FFF7C2BA880000200AF7654010
:102CB000CC6C474074656D700000000010B5044690
:102CC000FDF78EFE4620FDF74FFEFDF7E1FE2046A4
:102CD000FDF74AFEFDF7DCFEBDE81040FDF7ACBE97
:102CE0002048416814293CD3416814394160EFF30E
:102CF000108172B6826842F01002826081F31088FF
:102D00008178491CC9B2817005292AD300228270BA
:102D1000EFF3108172B6836843F02003836081F380
:102D200010880178491CC9B201700A2919D30270B0
:102D3000EFF3108172B6836843F04003836081F340
:102D400010884178491CC9B241703C2909D34270AE
:102D5000EFF3108172B6826842F08002826081F3E4
:102D60001088704718000020704770472DE9F04127
:102D7000114F00240125A7F1300600BF04EB4400E9
:102D800007EB8002117805FA01F0B168084202D120
:102D90005178C9070AD0EFF3108172B6B368834344
:102DA000B36081F31088D2E901018847641CE4B262
:102DB000042CE3D3BDE8F081480000202DE9F04F5A
:102DC000354C89B0E078401CE07004F10C00FEF74F
:102DD00045FE04F114010A208A79B2FBF0F3B2FB3C
:102DE000F0F800FB1329CDF800904A79DDF8009047
:102DF000B2FBF0F3B2FBF0F700FB132C0A79B2FB45
:102E0000F0F3B2FBF0FA00FB132ECA78B2FBF0F33A
:102E1000B2FBF0F600FB132B8A784978B2FBF0F393
:102E200000FB1325B2FBF0F3B1FBF0F2CDE9057C1A
:102E300000FB1212B1FBF0F1CDE903AE8DE86008A2
:102E400016A0CDE90789FFF7F1F904F12801A1F1F6
:102E50000800FFF7EDFED4E908010022184BFDF74A
:102E60002AFAFDF736FB014616A0FFF7DFF9E078F6
:102E7000012808D0022803D1FFF792FE0020E0705D
:102E800009B0BDE8F08F0120FFF718FF09B010204E
:102E9000BDE8F04FFFF712BF18000020256425643D
:102EA0002D256425642D2564256420202564256452
:102EB0003A256425643A25642564200D0A00000043
:102EC0000000244074656D706572617475726520D0
:102ED0003D2025640D0A00000000000000000000F5
:102EE00001020304060708090000000001020304B0
:102EF000102F000800000020980000004C2200085D
:102F0000A82F000898000020400400005C22000860
:102F100000000000010000001000000000000000A0
:102F200000A24A04000000000000000000000000B1
:102F30000000000000000000000000000000000091
:102F40000000000000000000000000000000000081
:102F5000000000000000000003000000000000006E
:102F6000E12C000804000000000000006B2D0008A8
:102F70000500000000000000692D000806000000A8
:102F800000000000BD2D000814130C1F173B320673
:102F90000000000000000000000000000000000031
:082FA000000000000000000029
:04000005080000ED02
:00000001FF
